{
  "contractName": "BirthdayCoin",
  "abi": [
    {
      "constant": true,
      "inputs": [],
      "name": "creator",
      "outputs": [
        {
          "name": "",
          "type": "address"
        }
      ],
      "payable": false,
      "stateMutability": "view",
      "type": "function"
    },
    {
      "constant": true,
      "inputs": [
        {
          "name": "",
          "type": "uint256"
        }
      ],
      "name": "coinToMessage",
      "outputs": [
        {
          "name": "",
          "type": "string"
        }
      ],
      "payable": false,
      "stateMutability": "view",
      "type": "function"
    },
    {
      "constant": true,
      "inputs": [
        {
          "name": "",
          "type": "uint256"
        }
      ],
      "name": "coinToPrice",
      "outputs": [
        {
          "name": "",
          "type": "uint256"
        }
      ],
      "payable": false,
      "stateMutability": "view",
      "type": "function"
    },
    {
      "constant": true,
      "inputs": [
        {
          "name": "",
          "type": "uint256"
        }
      ],
      "name": "coinToOwner",
      "outputs": [
        {
          "name": "",
          "type": "address"
        }
      ],
      "payable": false,
      "stateMutability": "view",
      "type": "function"
    },
    {
      "inputs": [],
      "payable": false,
      "stateMutability": "nonpayable",
      "type": "constructor"
    },
    {
      "constant": false,
      "inputs": [
        {
          "name": "id",
          "type": "uint256"
        },
        {
          "name": "message",
          "type": "string"
        }
      ],
      "name": "buyBirthday",
      "outputs": [
        {
          "name": "",
          "type": "bool"
        }
      ],
      "payable": true,
      "stateMutability": "payable",
      "type": "function"
    },
    {
      "constant": true,
      "inputs": [
        {
          "name": "id",
          "type": "uint256"
        }
      ],
      "name": "getCoinData",
      "outputs": [
        {
          "name": "",
          "type": "address"
        },
        {
          "name": "",
          "type": "string"
        },
        {
          "name": "",
          "type": "uint256"
        }
      ],
      "payable": false,
      "stateMutability": "view",
      "type": "function"
    },
    {
      "constant": true,
      "inputs": [],
      "name": "getTop10Coins",
      "outputs": [
        {
          "name": "",
          "type": "uint256[10]"
        }
      ],
      "payable": false,
      "stateMutability": "view",
      "type": "function"
    },
    {
      "constant": false,
      "inputs": [],
      "name": "withdraw",
      "outputs": [],
      "payable": false,
      "stateMutability": "nonpayable",
      "type": "function"
    },
    {
      "constant": true,
      "inputs": [],
      "name": "getPendingWithdrawal",
      "outputs": [
        {
          "name": "",
          "type": "uint256"
        }
      ],
      "payable": false,
      "stateMutability": "view",
      "type": "function"
    }
  ],
  "bytecode": "0x6060604052341561000f57600080fd5b33600e60006101000a81548173ffffffffffffffffffffffffffffffffffffffff021916908373ffffffffffffffffffffffffffffffffffffffff160217905550610bc18061005f6000396000f300606060405260043610610099576000357c0100000000000000000000000000000000000000000000000000000000900463ffffffff16806302d05d3f1461009e5780630913bdb7146100f35780633ccfd60b1461018f578063437f2f05146101a45780634b11fdb4146101db5780635e99b2961461020457806398927d3414610267578063d12b65281461033d578063dc953945146103b0575b600080fd5b34156100a957600080fd5b6100b1610401565b604051808273ffffffffffffffffffffffffffffffffffffffff1673ffffffffffffffffffffffffffffffffffffffff16815260200191505060405180910390f35b34156100fe57600080fd5b6101146004808035906020019091905050610427565b6040518080602001828103825283818151815260200191508051906020019080838360005b83811015610154578082015181840152602081019050610139565b50505050905090810190601f1680156101815780820380516001836020036101000a031916815260200191505b509250505060405180910390f35b341561019a57600080fd5b6101a26104d7565b005b34156101af57600080fd5b6101c560048080359060200190919050506105a3565b6040518082815260200191505060405180910390f35b34156101e657600080fd5b6101ee6105bb565b6040518082815260200191505060405180910390f35b341561020f57600080fd5b6102256004808035906020019091905050610602565b604051808273ffffffffffffffffffffffffffffffffffffffff1673ffffffffffffffffffffffffffffffffffffffff16815260200191505060405180910390f35b341561027257600080fd5b6102886004808035906020019091905050610635565b604051808473ffffffffffffffffffffffffffffffffffffffff1673ffffffffffffffffffffffffffffffffffffffff16815260200180602001838152602001828103825284818151815260200191508051906020019080838360005b838110156103005780820151818401526020810190506102e5565b50505050905090810190601f16801561032d5780820380516001836020036101000a031916815260200191505b5094505050505060405180910390f35b610396600480803590602001909190803590602001908201803590602001908080601f01602080910402602001604051908101604052809392919081815260200183838082843782019150505050505091905050610657565b604051808215151515815260200191505060405180910390f35b34156103bb57600080fd5b6103c36107a0565b6040518082600a60200280838360005b838110156103ee5780820151818401526020810190506103d3565b5050505090500191505060405180910390f35b600e60009054906101000a900473ffffffffffffffffffffffffffffffffffffffff1681565b60016020528060005260406000206000915090508054600181600116156101000203166002900480601f0160208091040260200160405190810160405280929190818152602001828054600181600116156101000203166002900480156104cf5780601f106104a4576101008083540402835291602001916104cf565b820191906000526020600020905b8154815290600101906020018083116104b257829003601f168201915b505050505081565b6000600360003373ffffffffffffffffffffffffffffffffffffffff1673ffffffffffffffffffffffffffffffffffffffff1681526020019081526020016000205490506000600360003373ffffffffffffffffffffffffffffffffffffffff1673ffffffffffffffffffffffffffffffffffffffff168152602001908152602001600020819055503373ffffffffffffffffffffffffffffffffffffffff166108fc829081150290604051600060405180830381858888f1935050505015156105a057600080fd5b50565b60026020528060005260406000206000915090505481565b6000600360003373ffffffffffffffffffffffffffffffffffffffff1673ffffffffffffffffffffffffffffffffffffffff16815260200190815260200160002054905090565b60006020528060005260406000206000915054906101000a900473ffffffffffffffffffffffffffffffffffffffff1681565b600061063f610ab3565b600061064a846107eb565b9250925092509193909250565b600080610662610ab3565b600060018610158015610677575061016e8611155b151561068257600080fd5b61068b866107eb565b92509250925080341015156107925734600360008573ffffffffffffffffffffffffffffffffffffffff1673ffffffffffffffffffffffffffffffffffffffff168152602001908152602001600020600082825401925050819055503360008088815260200190815260200160002060006101000a81548173ffffffffffffffffffffffffffffffffffffffff021916908373ffffffffffffffffffffffffffffffffffffffff1602179055508460016000888152602001908152602001600020908051906020019061075f929190610ac7565b5061076934610996565b6002600088815260200190815260200160002081905550610789866109a3565b60019350610797565b600093505b50505092915050565b6107a8610b47565b6004600a806020026040519081016040528092919082600a80156107e1576020028201915b8154815260200190600101908083116107cd575b5050505050905090565b60006107f5610ab3565b600080610800610ab3565b6000806002600089815260200190815260200160002054141561088957600e60009054906101000a900473ffffffffffffffffffffffffffffffffffffffff1692506040805190810160405280600b81526020017f466f722053616c65212121000000000000000000000000000000000000000000815250915066038d7ea4c680009050610983565b60008088815260200190815260200160002060009054906101000a900473ffffffffffffffffffffffffffffffffffffffff169250600160008881526020019081526020016000208054600181600116156101000203166002900480601f0160208091040260200160405190810160405280929190818152602001828054600181600116156101000203166002900480156109655780601f1061093a57610100808354040283529160200191610965565b820191906000526020600020905b81548152906001019060200180831161094857829003601f168201915b50505050509150600260008881526020019081526020016000205490505b8282829550955095505050509193909250565b6000600282029050919050565b600080600080600060026000878152602001908152602001600020549450600093505b600a84108015610a1457506000600485600a811015156109e257fe5b01541480610a13575060026000600486600a811015156109fe57fe5b01548152602001908152602001600020548510155b5b15610a265783806001019450506109c6565b6000841115610aab576001840392508591505b60008310158015610a4b575060008214155b15610aaa57600483600a81101515610a5f57fe5b0154905081600484600a81101515610a7357fe5b018190555082806001900393505081811415610aa157600483600a81101515610a9857fe5b01549150610aa5565b8091505b610a39565b5b505050505050565b602060405190810160405280600081525090565b828054600181600116156101000203166002900490600052602060002090601f016020900481019282601f10610b0857805160ff1916838001178555610b36565b82800160010185558215610b36579182015b82811115610b35578251825591602001919060010190610b1a565b5b509050610b439190610b70565b5090565b61014060405190810160405280600a905b6000815260200190600190039081610b585790505090565b610b9291905b80821115610b8e576000816000905550600101610b76565b5090565b905600a165627a7a723058201ee97c0929d4f66401589c56c9f112e9853869911baefb051dcb58774766b69f0029",
  "source": "pragma solidity ^0.4.4;\n\n// TODO: Consider making this thing abide by ERC721\ncontract BirthdayCoin  {\n\n  // TODO: Refine\n  uint constant startingPrice = 1 finney;\n  string constant defaultMessage = \"For Sale!!!\";\n\n  // There are 366 coins (1-indexed so that 0 can be used as a non-assignment flag):\n  // day | id\n  // 1/1 | 1\n  // ...\n  // 12/31 | 365\n  // 2/29 | 366 (leap day)\n  mapping(uint => address) public coinToOwner;\n  mapping(uint => string) public coinToMessage;\n  mapping(uint => uint) public coinToPrice;\n  mapping(address => uint) _pendingWithdrawals;\n\n  // sorted (lowest-highest) array of top 10 coin IDs by price\n  uint[10] _top10Coins;\n\n  // May not need this\n  address public creator;\n\n  function BirthdayCoin() public {\n    creator = msg.sender;\n  }\n\n  // TODO: pass in owner that user saw to verify no race condition!\n  // TODO: (maybe) add fee to creator\n  function buyBirthday(uint id, string message) public payable returns (bool) {\n    require(id >= 1 && id <= 366);\n\n    var (owner, prevMessage, price) = _getCoinData(id);\n    if (msg.value >= price) {\n      _pendingWithdrawals[owner] += msg.value;\n      coinToOwner[id] = msg.sender;\n      coinToMessage[id] = message;\n      coinToPrice[id] = _determineNewPrice(msg.value);\n      _updateTop10Coins(id);\n      return true;\n    } else {\n      return false;\n    }\n  }\n\n  // TODO: Refine\n  function _determineNewPrice(uint amountPaid) private pure returns (uint) {\n    return amountPaid * 2;\n  }\n\n  // TODO: Handle the case where we're re-inserting an ID!\n  // Do an insertion sort into the list and then unshift elements 'behind it'\n  function _updateTop10Coins(uint newCoinId) private {\n    uint newPrice = coinToPrice[newCoinId];\n\n    uint i = 0;\n    while (i < 10 && (_top10Coins[i] == 0 || newPrice >= coinToPrice[_top10Coins[i]])) {\n      i++;\n    }\n\n    // don't need to change anything if new price less than all of top 10\n    if (i > 0) {\n      uint insertionIndex = i - 1;\n      uint idToInsert = newCoinId;\n      uint tmp;\n\n      // because 0 represents non-coin, if we ever have to insert a 0, rest of array is 0s, so can break out\n      // of loop\n      while (insertionIndex >= 0 && idToInsert != 0) {\n        tmp = _top10Coins[insertionIndex];\n        _top10Coins[insertionIndex] = idToInsert;\n\n        insertionIndex--;\n\n        if (tmp == idToInsert) { // duplicate coin\n          idToInsert = _top10Coins[insertionIndex];\n        } else {\n          idToInsert = tmp;\n        }\n      }\n    }\n  }\n\n  // NOTE: Maybe this should return a 'nil'-type value\n  function getCoinData(uint id) public view returns (address, string, uint) {\n    return _getCoinData(id);\n  }\n\n  function _getCoinData(uint id) private view returns (address, string, uint) {\n    address owner;\n    string memory message;\n    uint price;\n    if (coinToPrice[id] == 0) {\n      owner = creator;\n      message = defaultMessage;\n      price = startingPrice;\n    } else {\n      owner = coinToOwner[id];\n      message = coinToMessage[id];\n      price = coinToPrice[id];\n    }\n\n    return (owner, message, price);\n  }\n\n  function getTop10Coins() public view returns (uint[10]) {\n    return _top10Coins;\n  }\n\n  // Withdraw split out to avoid re-entrancey if buyBirthday fails on send\n  function withdraw() public {\n    uint amount = _pendingWithdrawals[msg.sender];\n    _pendingWithdrawals[msg.sender] = 0; // zero out withdrawal first to protect against re-entrancy\n    msg.sender.transfer(amount);\n  }\n\n  function getPendingWithdrawal() public view returns (uint) {\n    return _pendingWithdrawals[msg.sender];\n  }\n}\n",
  "sourcePath": "/Users/lakshmansankar/src/birthdaycoin/contracts/BirthdayCoin.sol",
  "compiler": {
    "name": "solc",
    "version": "0.4.19+commit.c4cbbb05.Emscripten.clang"
  },
  "schemaVersion": "1.0.1",
  "updatedAt": "2018-03-01T06:17:23.228Z"
}