{
  "contractName": "Etherdate",
  "abi": [
    {
      "constant": true,
      "inputs": [],
      "name": "creator",
      "outputs": [
        {
          "name": "",
          "type": "address"
        }
      ],
      "payable": false,
      "stateMutability": "view",
      "type": "function"
    },
    {
      "constant": true,
      "inputs": [
        {
          "name": "",
          "type": "uint256"
        }
      ],
      "name": "coinToMessage",
      "outputs": [
        {
          "name": "",
          "type": "string"
        }
      ],
      "payable": false,
      "stateMutability": "view",
      "type": "function"
    },
    {
      "constant": true,
      "inputs": [
        {
          "name": "",
          "type": "uint256"
        }
      ],
      "name": "coinToPrice",
      "outputs": [
        {
          "name": "",
          "type": "uint256"
        }
      ],
      "payable": false,
      "stateMutability": "view",
      "type": "function"
    },
    {
      "constant": true,
      "inputs": [
        {
          "name": "",
          "type": "uint256"
        }
      ],
      "name": "coinToOwner",
      "outputs": [
        {
          "name": "",
          "type": "address"
        }
      ],
      "payable": false,
      "stateMutability": "view",
      "type": "function"
    },
    {
      "inputs": [],
      "payable": false,
      "stateMutability": "nonpayable",
      "type": "constructor"
    },
    {
      "constant": false,
      "inputs": [
        {
          "name": "id",
          "type": "uint256"
        },
        {
          "name": "message",
          "type": "string"
        }
      ],
      "name": "buy",
      "outputs": [
        {
          "name": "",
          "type": "bool"
        }
      ],
      "payable": true,
      "stateMutability": "payable",
      "type": "function"
    },
    {
      "constant": true,
      "inputs": [
        {
          "name": "id",
          "type": "uint256"
        }
      ],
      "name": "getCoinData",
      "outputs": [
        {
          "name": "",
          "type": "address"
        },
        {
          "name": "",
          "type": "string"
        },
        {
          "name": "",
          "type": "uint256"
        }
      ],
      "payable": false,
      "stateMutability": "view",
      "type": "function"
    },
    {
      "constant": true,
      "inputs": [],
      "name": "getTop10Coins",
      "outputs": [
        {
          "name": "",
          "type": "uint256[10]"
        }
      ],
      "payable": false,
      "stateMutability": "view",
      "type": "function"
    },
    {
      "constant": false,
      "inputs": [],
      "name": "withdraw",
      "outputs": [],
      "payable": false,
      "stateMutability": "nonpayable",
      "type": "function"
    },
    {
      "constant": true,
      "inputs": [],
      "name": "getPendingWithdrawal",
      "outputs": [
        {
          "name": "",
          "type": "uint256"
        }
      ],
      "payable": false,
      "stateMutability": "view",
      "type": "function"
    }
  ],
  "bytecode": "0x6060604052341561000f57600080fd5b33600e60006101000a81548173ffffffffffffffffffffffffffffffffffffffff021916908373ffffffffffffffffffffffffffffffffffffffff160217905550610d898061005f6000396000f300606060405260043610610099576000357c0100000000000000000000000000000000000000000000000000000000900463ffffffff16806302d05d3f1461009e5780630913bdb7146100f35780633ccfd60b1461018f578063437f2f05146101a45780634b11fdb4146101db5780635e99b2961461020457806398927d3414610267578063b7dc3b181461033d578063dc953945146103b0575b600080fd5b34156100a957600080fd5b6100b1610401565b604051808273ffffffffffffffffffffffffffffffffffffffff1673ffffffffffffffffffffffffffffffffffffffff16815260200191505060405180910390f35b34156100fe57600080fd5b6101146004808035906020019091905050610427565b6040518080602001828103825283818151815260200191508051906020019080838360005b83811015610154578082015181840152602081019050610139565b50505050905090810190601f1680156101815780820380516001836020036101000a031916815260200191505b509250505060405180910390f35b341561019a57600080fd5b6101a26104d7565b005b34156101af57600080fd5b6101c560048080359060200190919050506105ad565b6040518082815260200191505060405180910390f35b34156101e657600080fd5b6101ee6105c5565b6040518082815260200191505060405180910390f35b341561020f57600080fd5b610225600480803590602001909190505061060c565b604051808273ffffffffffffffffffffffffffffffffffffffff1673ffffffffffffffffffffffffffffffffffffffff16815260200191505060405180910390f35b341561027257600080fd5b610288600480803590602001909190505061063f565b604051808473ffffffffffffffffffffffffffffffffffffffff1673ffffffffffffffffffffffffffffffffffffffff16815260200180602001838152602001828103825284818151815260200191508051906020019080838360005b838110156103005780820151818401526020810190506102e5565b50505050905090810190601f16801561032d5780820380516001836020036101000a031916815260200191505b5094505050505060405180910390f35b610396600480803590602001909190803590602001908201803590602001908080601f01602080910402602001604051908101604052809392919081815260200183838082843782019150505050505091905050610661565b604051808215151515815260200191505060405180910390f35b34156103bb57600080fd5b6103c361082b565b6040518082600a60200280838360005b838110156103ee5780820151818401526020810190506103d3565b5050505090500191505060405180910390f35b600e60009054906101000a900473ffffffffffffffffffffffffffffffffffffffff1681565b60016020528060005260406000206000915090508054600181600116156101000203166002900480601f0160208091040260200160405190810160405280929190818152602001828054600181600116156101000203166002900480156104cf5780601f106104a4576101008083540402835291602001916104cf565b820191906000526020600020905b8154815290600101906020018083116104b257829003601f168201915b505050505081565b6000600360003373ffffffffffffffffffffffffffffffffffffffff1673ffffffffffffffffffffffffffffffffffffffff16815260200190815260200160002054905060008111156105aa576000600360003373ffffffffffffffffffffffffffffffffffffffff1673ffffffffffffffffffffffffffffffffffffffff168152602001908152602001600020819055503373ffffffffffffffffffffffffffffffffffffffff166108fc829081150290604051600060405180830381858888f1935050505015156105a957600080fd5b5b50565b60026020528060005260406000206000915090505481565b6000600360003373ffffffffffffffffffffffffffffffffffffffff1673ffffffffffffffffffffffffffffffffffffffff16815260200190815260200160002054905090565b60006020528060005260406000206000915054906101000a900473ffffffffffffffffffffffffffffffffffffffff1681565b6000610649610c7b565b600061065484610876565b9250925092509193909250565b60008061066c610c7b565b600080600060018810158015610684575061016e8811155b151561068f57600080fd5b61069888610876565b945094509450823410151561081b576106b034610a21565b915091508160036000600e60009054906101000a900473ffffffffffffffffffffffffffffffffffffffff1673ffffffffffffffffffffffffffffffffffffffff1673ffffffffffffffffffffffffffffffffffffffff1681526020019081526020016000206000828254019250508190555080600360008773ffffffffffffffffffffffffffffffffffffffff1673ffffffffffffffffffffffffffffffffffffffff16815260200190815260200160002060008282540192505081905550336000808a815260200190815260200160002060006101000a81548173ffffffffffffffffffffffffffffffffffffffff021916908373ffffffffffffffffffffffffffffffffffffffff16021790555086600160008a815260200190815260200160002090805190602001906107e8929190610c8f565b506107f234610a43565b600260008a81526020019081526020016000208190555061081288610a9f565b60019550610820565b600095505b505050505092915050565b610833610d0f565b6004600a806020026040519081016040528092919082600a801561086c576020028201915b815481526020019060010190808311610858575b5050505050905090565b6000610880610c7b565b60008061088b610c7b565b6000806002600089815260200190815260200160002054141561091457600e60009054906101000a900473ffffffffffffffffffffffffffffffffffffffff1692506040805190810160405280601681526020017f4e6f7468696e6720746f2073656520686572652e2e2e00000000000000000000815250915066470de4df8200009050610a0e565b60008088815260200190815260200160002060009054906101000a900473ffffffffffffffffffffffffffffffffffffffff169250600160008881526020019081526020016000208054600181600116156101000203166002900480601f0160208091040260200160405190810160405280929190818152602001828054600181600116156101000203166002900480156109f05780601f106109c5576101008083540402835291602001916109f0565b820191906000526020600020905b8154815290600101906020018083116109d357829003601f168201915b50505050509150600260008881526020019081526020016000205490505b8282829550955095505050509193909250565b6000806000606484811515610a3257fe5b049050808185039250925050915091565b6000670470de4df8200000821015610a6057600282029050610a9a565b67167b656ab8220000821015610a8757600260038302811515610a7f57fe5b049050610a9a565b600a600b8302811515610a9657fe5b0490505b919050565b610aa881610ab4565b610ab181610b76565b50565b6000806000600a9250600091505b600a821015610af45783600483600a81101515610adb57fe5b01541415610ae7578192505b8180600101925050610ac2565b600a831015610b70576000600484600a81101515610b0e57fe5b01819055508290505b6000811115610b6f57600460018203600a81101515610b3257fe5b0154600482600a81101515610b4357fe5b01819055506000600460018303600a81101515610b5c57fe5b0181905550808060019003915050610b17565b5b50505050565b600080600080600060026000878152602001908152602001600020549450600093505b600a8460ff16108015610bf05750600060048560ff16600a81101515610bbb57fe5b01541480610bef57506002600060048660ff16600a81101515610bda57fe5b01548152602001908152602001600020548510155b5b15610c02578380600101945050610b99565b60008460ff161115610c73576001840392508591505b600082141515610c725760048360ff16600a81101515610c3457fe5b015490508160048460ff16600a81101515610c4b57fe5b018190555060008360ff161415610c6157610c72565b828060019003935050809150610c18565b5b505050505050565b602060405190810160405280600081525090565b828054600181600116156101000203166002900490600052602060002090601f016020900481019282601f10610cd057805160ff1916838001178555610cfe565b82800160010185558215610cfe579182015b82811115610cfd578251825591602001919060010190610ce2565b5b509050610d0b9190610d38565b5090565b61014060405190810160405280600a905b6000815260200190600190039081610d205790505090565b610d5a91905b80821115610d56576000816000905550600101610d3e565b5090565b905600a165627a7a7230582020d2b39fcb3b4fbaa97af82aca9ab9b815d7524ff7a67d1735eed9d7a2536a180029",
  "source": "pragma solidity ^0.4.4;\n\ncontract Etherdate {\n  uint constant startingPrice = 20 finney;\n  string constant startingMessage = \"Nothing to see here...\";\n\n  uint constant dummyCoinID = 0;\n\n  // There are 366 coins (1-indexed so that 0 can be used as a non-assignment flag):\n  // day | id\n  // 1/1 | 1\n  // ...\n  // 12/31 | 365\n  // 2/29 | 366 (leap day)\n  mapping(uint => address) public coinToOwner;\n  mapping(uint => string) public coinToMessage;\n  mapping(uint => uint) public coinToPrice;\n  mapping(address => uint) _pendingWithdrawals;\n\n  // sorted (lowest-highest) array of top 10 coin IDs by price\n  uint[10] _top10Coins;\n\n  // May not need this\n  address public creator;\n\n  function Etherdate() public {\n    creator = msg.sender;\n  }\n\n  function buy(uint id, string message) public payable returns (bool) {\n    require(id >= 1 && id <= 366);\n\n    var (owner, prevMessage, price) = _getCoinData(id);\n    if (msg.value >= price) {\n      var (fee, payment) = _extractFee(msg.value);\n      _pendingWithdrawals[creator] += fee;\n      _pendingWithdrawals[owner] += payment;\n\n      coinToOwner[id] = msg.sender;\n      coinToMessage[id] = message;\n      coinToPrice[id] = _determineNewPrice(msg.value);\n      _updateTop10Coins(id);\n      return true;\n    } else {\n      return false;\n    }\n  }\n\n  // Extract fee to be paid to contract creator. Fee is defined entirely in this contract! Can be changed in\n  // future versions\n  function _extractFee(uint amountPaid) private pure returns (uint, uint) {\n    uint fee = amountPaid / 100;\n    return (fee, amountPaid - fee);\n  }\n\n  // 20 -> 320 f = 2x\n  // 320 -> 1620 f = 1.5x\n  // 1620 -> ... f = 1.1x\n  function _determineNewPrice(uint amountPaid) private pure returns (uint) {\n    if (amountPaid < 320 finney) {\n      return amountPaid * 2;\n    } else if (amountPaid < 1620 finney) {\n      return (amountPaid * 3) / 2;\n    } else {\n      return (amountPaid * 11) / 10;\n    }\n  }\n\n  // Do an insertion sort into the list and then unshift elements 'behind it'\n  function _updateTop10Coins(uint newCoinId) private {\n    _removeExistingFromTop10(newCoinId);\n    _insertNewCoinTop10(newCoinId);\n  }\n\n  function _insertNewCoinTop10(uint newCoinId) private {\n    uint newPrice = coinToPrice[newCoinId];\n\n    // get insertion index\n    uint8 i = 0;\n    while (i < 10 && (_top10Coins[i] == dummyCoinID || newPrice >= coinToPrice[_top10Coins[i]])) {\n      i++;\n    }\n\n    // don't need to insert if doesn't belong in top 10\n    if (i > 0) {\n      uint8 insertionIndex = i - 1;\n      uint idToInsert = newCoinId;\n      uint tmp;\n\n      while (idToInsert != dummyCoinID) {\n        tmp = _top10Coins[insertionIndex];\n        _top10Coins[insertionIndex] = idToInsert;\n\n        // Don't do shifting logic if we're at the beginning of the list!\n        if (insertionIndex == 0) {\n          break;\n        }\n\n        insertionIndex--;\n        idToInsert = tmp;\n      }\n    }\n  }\n\n  // Remove all existing instances of new coin in the top 10 and shift list accordingly\n  // i.e. if newCoinId = 1 and top10List = [0,...,3,1,2] -> [0,...,3,2]\n  function _removeExistingFromTop10(uint newCoinId) private {\n    uint newCoinIdx = 10; // only top 10, so this can never be an issue... May want to hardcode in top 10-ness\n    for (uint i = 0; i < 10; i++) {\n      if (_top10Coins[i] == newCoinId) {\n        newCoinIdx = i;\n      }\n    }\n\n    if (newCoinIdx < 10) {\n      _top10Coins[newCoinIdx] = dummyCoinID;\n      uint dummyIdx = newCoinIdx;\n\n      // Right shift dummy coins\n      while (dummyIdx > 0) {\n        _top10Coins[dummyIdx] = _top10Coins[dummyIdx - 1];\n        _top10Coins[dummyIdx - 1] = dummyCoinID;\n\n        dummyIdx--;\n      }\n    }\n  }\n\n  // NOTE: Maybe this should return a 'nil'-type value\n  function getCoinData(uint id) public view returns (address, string, uint) {\n    return _getCoinData(id);\n  }\n\n  function _getCoinData(uint id) private view returns (address, string, uint) {\n    address owner;\n    string memory message;\n    uint price;\n    if (coinToPrice[id] == dummyCoinID) {\n      owner = creator;\n      message = startingMessage;\n      price = startingPrice;\n    } else {\n      owner = coinToOwner[id];\n      message = coinToMessage[id];\n      price = coinToPrice[id];\n    }\n\n    return (owner, message, price);\n  }\n\n  function getTop10Coins() public view returns (uint[10]) {\n    return _top10Coins;\n  }\n\n  // Withdraw split out to avoid re-entrancey if buy fails on send\n  function withdraw() public {\n    uint amount = _pendingWithdrawals[msg.sender];\n\n    if (amount > 0) {\n      _pendingWithdrawals[msg.sender] = 0; // zero out withdrawal first to protect against re-entrancy\n      msg.sender.transfer(amount);\n    }\n  }\n\n  function getPendingWithdrawal() public view returns (uint) {\n    return _pendingWithdrawals[msg.sender];\n  }\n}\n",
  "sourcePath": "/Users/lakshmansankar/src/etherdate/contracts/Etherdate.sol",
  "compiler": {
    "name": "solc",
    "version": "0.4.19+commit.c4cbbb05.Emscripten.clang"
  },
  "schemaVersion": "1.0.1",
  "updatedAt": "2018-03-09T20:03:46.255Z"
}